{"abi":[{"type":"constructor","inputs":[{"name":"admin","type":"address","internalType":"address"},{"name":"_vault","type":"address","internalType":"address"},{"name":"_feeModel","type":"address","internalType":"address"}],"stateMutability":"nonpayable"},{"type":"function","name":"DEFAULT_ADMIN_ROLE","inputs":[],"outputs":[{"name":"","type":"bytes32","internalType":"bytes32"}],"stateMutability":"view"},{"type":"function","name":"MAX_ORDERS_PER_BATCH","inputs":[],"outputs":[{"name":"","type":"uint256","internalType":"uint256"}],"stateMutability":"view"},{"type":"function","name":"MAX_TICK","inputs":[],"outputs":[{"name":"","type":"uint256","internalType":"uint256"}],"stateMutability":"view"},{"type":"function","name":"MIN_TICK","inputs":[],"outputs":[{"name":"","type":"uint256","internalType":"uint256"}],"stateMutability":"view"},{"type":"function","name":"OPERATOR_ROLE","inputs":[],"outputs":[{"name":"","type":"bytes32","internalType":"bytes32"}],"stateMutability":"view"},{"type":"function","name":"advanceBatch","inputs":[{"name":"marketId","type":"uint256","internalType":"uint256"}],"outputs":[],"stateMutability":"nonpayable"},{"type":"function","name":"askVolumeAt","inputs":[{"name":"marketId","type":"uint256","internalType":"uint256"},{"name":"tick","type":"uint256","internalType":"uint256"}],"outputs":[{"name":"","type":"uint256","internalType":"uint256"}],"stateMutability":"view"},{"type":"function","name":"bidVolumeAt","inputs":[{"name":"marketId","type":"uint256","internalType":"uint256"},{"name":"tick","type":"uint256","internalType":"uint256"}],"outputs":[{"name":"","type":"uint256","internalType":"uint256"}],"stateMutability":"view"},{"type":"function","name":"cancelExpiredOrder","inputs":[{"name":"orderId","type":"uint256","internalType":"uint256"}],"outputs":[],"stateMutability":"nonpayable"},{"type":"function","name":"cancelExpiredOrders","inputs":[{"name":"orderIds","type":"uint256[]","internalType":"uint256[]"}],"outputs":[],"stateMutability":"nonpayable"},{"type":"function","name":"cancelOrder","inputs":[{"name":"orderId","type":"uint256","internalType":"uint256"}],"outputs":[],"stateMutability":"nonpayable"},{"type":"function","name":"cumulativeAskVolume","inputs":[{"name":"marketId","type":"uint256","internalType":"uint256"},{"name":"tick","type":"uint256","internalType":"uint256"}],"outputs":[{"name":"","type":"uint256","internalType":"uint256"}],"stateMutability":"view"},{"type":"function","name":"cumulativeBidVolume","inputs":[{"name":"marketId","type":"uint256","internalType":"uint256"},{"name":"tick","type":"uint256","internalType":"uint256"}],"outputs":[{"name":"","type":"uint256","internalType":"uint256"}],"stateMutability":"view"},{"type":"function","name":"deactivateMarket","inputs":[{"name":"marketId","type":"uint256","internalType":"uint256"}],"outputs":[],"stateMutability":"nonpayable"},{"type":"function","name":"feeModel","inputs":[],"outputs":[{"name":"","type":"address","internalType":"contract FeeModel"}],"stateMutability":"view"},{"type":"function","name":"findClearingTick","inputs":[{"name":"marketId","type":"uint256","internalType":"uint256"}],"outputs":[{"name":"","type":"uint256","internalType":"uint256"}],"stateMutability":"view"},{"type":"function","name":"getBatchOrderIds","inputs":[{"name":"marketId","type":"uint256","internalType":"uint256"},{"name":"batchId","type":"uint256","internalType":"uint256"}],"outputs":[{"name":"","type":"uint256[]","internalType":"uint256[]"}],"stateMutability":"view"},{"type":"function","name":"getRoleAdmin","inputs":[{"name":"role","type":"bytes32","internalType":"bytes32"}],"outputs":[{"name":"","type":"bytes32","internalType":"bytes32"}],"stateMutability":"view"},{"type":"function","name":"grantRole","inputs":[{"name":"role","type":"bytes32","internalType":"bytes32"},{"name":"account","type":"address","internalType":"address"}],"outputs":[],"stateMutability":"nonpayable"},{"type":"function","name":"haltMarket","inputs":[{"name":"marketId","type":"uint256","internalType":"uint256"}],"outputs":[],"stateMutability":"nonpayable"},{"type":"function","name":"hasRole","inputs":[{"name":"role","type":"bytes32","internalType":"bytes32"},{"name":"account","type":"address","internalType":"address"}],"outputs":[{"name":"","type":"bool","internalType":"bool"}],"stateMutability":"view"},{"type":"function","name":"markets","inputs":[{"name":"","type":"uint256","internalType":"uint256"}],"outputs":[{"name":"id","type":"uint32","internalType":"uint32"},{"name":"active","type":"bool","internalType":"bool"},{"name":"halted","type":"bool","internalType":"bool"},{"name":"currentBatchId","type":"uint32","internalType":"uint32"},{"name":"minLots","type":"uint32","internalType":"uint32"},{"name":"batchInterval","type":"uint32","internalType":"uint32"},{"name":"expiryTime","type":"uint40","internalType":"uint40"}],"stateMutability":"view"},{"type":"function","name":"nextMarketId","inputs":[],"outputs":[{"name":"","type":"uint32","internalType":"uint32"}],"stateMutability":"view"},{"type":"function","name":"nextOrderId","inputs":[],"outputs":[{"name":"","type":"uint64","internalType":"uint64"}],"stateMutability":"view"},{"type":"function","name":"orders","inputs":[{"name":"","type":"uint256","internalType":"uint256"}],"outputs":[{"name":"owner","type":"address","internalType":"address"},{"name":"side","type":"uint8","internalType":"enum Side"},{"name":"orderType","type":"uint8","internalType":"enum OrderType"},{"name":"tick","type":"uint8","internalType":"uint8"},{"name":"lots","type":"uint64","internalType":"uint64"},{"name":"id","type":"uint64","internalType":"uint64"},{"name":"marketId","type":"uint32","internalType":"uint32"},{"name":"batchId","type":"uint32","internalType":"uint32"},{"name":"timestamp","type":"uint40","internalType":"uint40"}],"stateMutability":"view"},{"type":"function","name":"placeOrder","inputs":[{"name":"marketId","type":"uint256","internalType":"uint256"},{"name":"side","type":"uint8","internalType":"enum Side"},{"name":"orderType","type":"uint8","internalType":"enum OrderType"},{"name":"tick","type":"uint256","internalType":"uint256"},{"name":"lots","type":"uint256","internalType":"uint256"}],"outputs":[{"name":"orderId","type":"uint256","internalType":"uint256"}],"stateMutability":"nonpayable"},{"type":"function","name":"pushBatchOrderId","inputs":[{"name":"marketId","type":"uint256","internalType":"uint256"},{"name":"batchId","type":"uint256","internalType":"uint256"},{"name":"orderId","type":"uint256","internalType":"uint256"}],"outputs":[{"name":"","type":"bool","internalType":"bool"}],"stateMutability":"nonpayable"},{"type":"function","name":"reduceOrderLots","inputs":[{"name":"orderId","type":"uint256","internalType":"uint256"},{"name":"lotsToReduce","type":"uint256","internalType":"uint256"}],"outputs":[],"stateMutability":"nonpayable"},{"type":"function","name":"registerMarket","inputs":[{"name":"minLots","type":"uint256","internalType":"uint256"},{"name":"batchInterval","type":"uint256","internalType":"uint256"},{"name":"expiryTime","type":"uint256","internalType":"uint256"}],"outputs":[{"name":"marketId","type":"uint256","internalType":"uint256"}],"stateMutability":"nonpayable"},{"type":"function","name":"renounceRole","inputs":[{"name":"role","type":"bytes32","internalType":"bytes32"},{"name":"callerConfirmation","type":"address","internalType":"address"}],"outputs":[],"stateMutability":"nonpayable"},{"type":"function","name":"resumeMarket","inputs":[{"name":"marketId","type":"uint256","internalType":"uint256"}],"outputs":[],"stateMutability":"nonpayable"},{"type":"function","name":"revokeRole","inputs":[{"name":"role","type":"bytes32","internalType":"bytes32"},{"name":"account","type":"address","internalType":"address"}],"outputs":[],"stateMutability":"nonpayable"},{"type":"function","name":"supportsInterface","inputs":[{"name":"interfaceId","type":"bytes4","internalType":"bytes4"}],"outputs":[{"name":"","type":"bool","internalType":"bool"}],"stateMutability":"view"},{"type":"function","name":"totalAskVolume","inputs":[{"name":"marketId","type":"uint256","internalType":"uint256"}],"outputs":[{"name":"","type":"uint256","internalType":"uint256"}],"stateMutability":"view"},{"type":"function","name":"totalBidVolume","inputs":[{"name":"marketId","type":"uint256","internalType":"uint256"}],"outputs":[{"name":"","type":"uint256","internalType":"uint256"}],"stateMutability":"view"},{"type":"function","name":"updateTreeVolume","inputs":[{"name":"marketId","type":"uint256","internalType":"uint256"},{"name":"side","type":"uint8","internalType":"enum Side"},{"name":"tick","type":"uint256","internalType":"uint256"},{"name":"delta","type":"int256","internalType":"int256"}],"outputs":[],"stateMutability":"nonpayable"},{"type":"function","name":"vault","inputs":[],"outputs":[{"name":"","type":"address","internalType":"contract Vault"}],"stateMutability":"view"},{"type":"event","name":"MarketDeactivated","inputs":[{"name":"marketId","type":"uint256","indexed":true,"internalType":"uint256"}],"anonymous":false},{"type":"event","name":"MarketHalted","inputs":[{"name":"marketId","type":"uint256","indexed":true,"internalType":"uint256"}],"anonymous":false},{"type":"event","name":"MarketRegistered","inputs":[{"name":"marketId","type":"uint256","indexed":true,"internalType":"uint256"},{"name":"minLots","type":"uint256","indexed":false,"internalType":"uint256"}],"anonymous":false},{"type":"event","name":"MarketResumed","inputs":[{"name":"marketId","type":"uint256","indexed":true,"internalType":"uint256"}],"anonymous":false},{"type":"event","name":"OrderCancelled","inputs":[{"name":"orderId","type":"uint256","indexed":true,"internalType":"uint256"},{"name":"marketId","type":"uint256","indexed":true,"internalType":"uint256"},{"name":"owner","type":"address","indexed":true,"internalType":"address"}],"anonymous":false},{"type":"event","name":"OrderPlaced","inputs":[{"name":"orderId","type":"uint256","indexed":true,"internalType":"uint256"},{"name":"marketId","type":"uint256","indexed":true,"internalType":"uint256"},{"name":"owner","type":"address","indexed":true,"internalType":"address"},{"name":"side","type":"uint8","indexed":false,"internalType":"enum Side"},{"name":"tick","type":"uint256","indexed":false,"internalType":"uint256"},{"name":"lots","type":"uint256","indexed":false,"internalType":"uint256"},{"name":"batchId","type":"uint256","indexed":false,"internalType":"uint256"}],"anonymous":false},{"type":"event","name":"RoleAdminChanged","inputs":[{"name":"role","type":"bytes32","indexed":true,"internalType":"bytes32"},{"name":"previousAdminRole","type":"bytes32","indexed":true,"internalType":"bytes32"},{"name":"newAdminRole","type":"bytes32","indexed":true,"internalType":"bytes32"}],"anonymous":false},{"type":"event","name":"RoleGranted","inputs":[{"name":"role","type":"bytes32","indexed":true,"internalType":"bytes32"},{"name":"account","type":"address","indexed":true,"internalType":"address"},{"name":"sender","type":"address","indexed":true,"internalType":"address"}],"anonymous":false},{"type":"event","name":"RoleRevoked","inputs":[{"name":"role","type":"bytes32","indexed":true,"internalType":"bytes32"},{"name":"account","type":"address","indexed":true,"internalType":"address"},{"name":"sender","type":"address","indexed":true,"internalType":"address"}],"anonymous":false},{"type":"error","name":"AccessControlBadConfirmation","inputs":[]},{"type":"error","name":"AccessControlUnauthorizedAccount","inputs":[{"name":"account","type":"address","internalType":"address"},{"name":"neededRole","type":"bytes32","internalType":"bytes32"}]},{"type":"error","name":"ReentrancyGuardReentrantCall","inputs":[]}],"bytecode":{"object":"0x60c0604052600280546001600160601b0319166801000000000000000117905534801561002a575f80fd5b5060405161312f38038061312f833981016040819052610049916101e5565b600180556001600160a01b0382166100a85760405162461bcd60e51b815260206004820152601560248201527f4f72646572426f6f6b3a207a65726f207661756c74000000000000000000000060448201526064015b60405180910390fd5b6001600160a01b0381166100fe5760405162461bcd60e51b815260206004820152601860248201527f4f72646572426f6f6b3a207a65726f206665654d6f64656c0000000000000000604482015260640161009f565b6101085f84610121565b506001600160a01b039182166080521660a05250610225565b5f828152602081815260408083206001600160a01b038516845290915281205460ff166101c1575f838152602081815260408083206001600160a01b03861684529091529020805460ff191660011790556101793390565b6001600160a01b0316826001600160a01b0316847f2f8788117e7eff1d82e926ec794901d17c78024a50270940304540a733656f0d60405160405180910390a45060016101c4565b505f5b92915050565b80516001600160a01b03811681146101e0575f80fd5b919050565b5f805f606084860312156101f7575f80fd5b610200846101ca565b925061020e602085016101ca565b915061021c604085016101ca565b90509250925092565b60805160a051612e9561029a5f395f81816104060152818161098d01528181610e5801528181611466015261208701525f818161066f01528181610aa401528181610b1f01528181610f3d01528181610fb60152818161186a015281816118e30152818161217601526121f10152612e955ff3fe608060405234801561000f575f80fd5b506004361061021e575f3560e01c80636882a8881161012a578063c8f5e28b116100b4578063ef0595f511610079578063ef0595f514610630578063f45d4dd014610643578063f5b541a614610656578063fbfa77cf1461066a578063fedfe90214610691575f80fd5b8063c8f5e28b146105d1578063caa4d3db146105e4578063ce5c5c93146105f7578063d547741f1461060a578063df840f2d1461061d575f80fd5b80639b2990d8116100fa5780639b2990d814610440578063a1634b1414610460578063a217fddf14610468578063a85c38ef1461046f578063b1283e7714610516575f80fd5b80636882a888146103d357806389d5a887146103db57806391d14854146103ee57806397ee114414610401575f80fd5b8063406ef2ef116101ab578063514fcac71161017b578063514fcac71461037457806352491ee61461038757806355d6a0c01461039a578063672bc121146103ad578063677ea780146103c0575f80fd5b8063406ef2ef1461030f57806348c1586f1461033b5780634da5a1b81461034e5780634e9e373a14610361575f80fd5b8063248a9ca3116101f1578063248a9ca3146102895780632a58b330146102ab5780632f2ff15d146102d65780633227851b146102e957806336568abe146102fc575f80fd5b806301ffc9a7146102225780630a64e0a01461024a578063146aea361461026b578063156a36a814610274575b5f80fd5b610235610230366004612999565b6106a4565b60405190151581526020015b60405180910390f35b61025d6102583660046129c0565b6106da565b604051908152602001610241565b61025d61019081565b6102876102823660046129d7565b6106f0565b005b61025d6102973660046129c0565b5f9081526020819052604090206001015490565b6002546102be906001600160401b031681565b6040516001600160401b039091168152602001610241565b6102876102e43660046129f7565b6107c8565b6102876102f73660046129c0565b6107f2565b61028761030a3660046129f7565b610bc6565b60025461032690600160401b900463ffffffff1681565b60405163ffffffff9091168152602001610241565b61025d6103493660046129c0565b610bfe565b61023561035c366004612a30565b610c14565b61028761036f366004612a65565b610c8b565b6102876103823660046129c0565b610cf6565b6102876103953660046129c0565b611056565b61025d6103a8366004612a9f565b61112f565b6102876103bb3660046129c0565b6119a3565b61025d6103ce366004612a30565b611a05565b61025d606381565b61025d6103e93660046129d7565b611d18565b6102356103fc3660046129f7565b611d74565b6104287f000000000000000000000000000000000000000000000000000000000000000081565b6040516001600160a01b039091168152602001610241565b61045361044e3660046129d7565b611d9c565b6040516102419190612aed565b61025d600181565b61025d5f81565b61050161047d3660046129c0565b60046020525f9081526040902080546001909101546001600160a01b0382169160ff600160a01b8204811692600160a81b8304821692600160b01b8104909216916001600160401b03600160b81b9091048116919081169063ffffffff600160401b8204811691600160601b81049091169064ffffffffff600160801b9091041689565b60405161024199989796959493929190612b60565b6105846105243660046129c0565b60036020525f908152604090205463ffffffff8082169160ff6401000000008204811692600160281b830490911691600160301b8104821691600160501b8204811691600160701b81049091169064ffffffffff600160901b9091041687565b6040805163ffffffff988916815296151560208801529415159486019490945291851660608501528416608084015290921660a082015264ffffffffff90911660c082015260e001610241565b6102876105df3660046129c0565b611e04565b61025d6105f23660046129d7565b611e8c565b61025d6106053660046129d7565b611eaa565b6102876106183660046129f7565b611ec1565b61025d61062b3660046129c0565b611ee5565b61028761063e366004612bde565b611f06565b6102876106513660046129c0565b6122bb565b61025d5f80516020612e4083398151915281565b6104287f000000000000000000000000000000000000000000000000000000000000000081565b61025d61069f3660046129d7565b6123a3565b5f6001600160e01b03198216637965db0b60e01b14806106d457506301ffc9a760e01b6001600160e01b03198316145b92915050565b5f818152600560205260408120600101546106d4565b5f80516020612e40833981519152610707816123ba565b5f8381526004602052604090208054600160b81b90046001600160401b031683111561077a5760405162461bcd60e51b815260206004820152601c60248201527f4f72646572426f6f6b3a20696e73756666696369656e74206c6f74730000000060448201526064015b60405180910390fd5b80548390829060179061079e908490600160b81b90046001600160401b0316612c60565b92506101000a8154816001600160401b0302191690836001600160401b0316021790555050505050565b5f828152602081905260409020600101546107e2816123ba565b6107ec83836123c4565b50505050565b6107fa612453565b5f8181526004602052604090208054600160b81b90046001600160401b03166108355760405162461bcd60e51b815260040161077190612c87565b6001810154600160401b900463ffffffff165f9081526003602052604090208054600160901b900464ffffffffff1642116108b25760405162461bcd60e51b815260206004820152601d60248201527f4f72646572426f6f6b3a206d61726b6574206e6f7420657870697265640000006044820152606401610771565b815460018301546001600160a01b03821691600160b81b81046001600160401b031691600160b01b820460ff90811692600160401b90920463ffffffff1691600160a01b9004165f8082600181111561090d5761090d612b30565b0361094157606484610926662386f26fc1000088612cca565b6109309190612cca565b61093a9190612ce1565b9050610975565b606461094d8582612d00565b61095e662386f26fc1000088612cca565b6109689190612cca565b6109729190612ce1565b90505b6040516399a5d74760e01b8152600481018290525f907f00000000000000000000000000000000000000000000000000000000000000006001600160a01b0316906399a5d74790602401602060405180830381865afa1580156109da573d5f803e3d5ffd5b505050506040513d601f19601f820116820180604052508101906109fe9190612d13565b90505f610a0b8284612d2a565b8a5467ffffffffffffffff60b81b19168b5590505f846001811115610a3257610a32612b30565b03610a5d57610a5886610a4489612d3d565b5f888152600560205260409020919061247d565b610a7e565b610a7e86610a6a89612d3d565b5f888152600660205260409020919061247d565b604051637eee288d60e01b81526001600160a01b038981166004830152602482018390527f00000000000000000000000000000000000000000000000000000000000000001690637eee288d906044015f604051808303815f87803b158015610ae5575f80fd5b505af1158015610af7573d5f803e3d5ffd5b505060405163040b850f60e31b81526001600160a01b038b81166004830152602482018590527f000000000000000000000000000000000000000000000000000000000000000016925063205c287891506044015f604051808303815f87803b158015610b62575f80fd5b505af1158015610b74573d5f803e3d5ffd5b50505050876001600160a01b0316858c7ffd26bdfab7051e704daf6de4b923d491d29d356b8d9135f96640adfc1c58cec460405160405180910390a450505050505050505050610bc360018055565b50565b6001600160a01b0381163314610bef5760405163334bd91960e11b815260040160405180910390fd5b610bf98282612598565b505050565b5f818152600660205260408120600101546106d4565b5f5f80516020612e40833981519152610c2c816123ba565b5f85815260076020908152604080832087845290915290205461019011610c55575f9150610c83565b5f85815260076020908152604080832087845282528220805460018181018355918452919092200184905591505b509392505050565b5f80516020612e40833981519152610ca2816123ba565b5f846001811115610cb557610cb5612b30565b03610cd7575f858152600560205260409020610cd290848461247d565b610cef565b5f858152600660205260409020610cef90848461247d565b5050505050565b610cfe612453565b5f81815260046020526040902080546001600160a01b03163314610d5b5760405162461bcd60e51b815260206004820152601460248201527327b93232b92137b7b59d103737ba1037bbb732b960611b6044820152606401610771565b8054600160b81b90046001600160401b0316610d895760405162461bcd60e51b815260040161077190612c87565b805460018201546001600160401b03600160b81b8304169160ff600160b01b820481169263ffffffff600160401b9091041691600160a01b9004165f80826001811115610dd857610dd8612b30565b03610e0c57606484610df1662386f26fc1000088612cca565b610dfb9190612cca565b610e059190612ce1565b9050610e40565b6064610e188582612d00565b610e29662386f26fc1000088612cca565b610e339190612cca565b610e3d9190612ce1565b90505b6040516399a5d74760e01b8152600481018290525f907f00000000000000000000000000000000000000000000000000000000000000006001600160a01b0316906399a5d74790602401602060405180830381865afa158015610ea5573d5f803e3d5ffd5b505050506040513d601f19601f82011682018060405250810190610ec99190612d13565b90505f610ed68284612d2a565b885467ffffffffffffffff60b81b1916895590505f846001811115610efd57610efd612b30565b03610f1457610f0f86610a4489612d3d565b610f21565b610f2186610a6a89612d3d565b604051637eee288d60e01b8152336004820152602481018290527f00000000000000000000000000000000000000000000000000000000000000006001600160a01b031690637eee288d906044015f604051808303815f87803b158015610f86575f80fd5b505af1158015610f98573d5f803e3d5ffd5b505060405163040b850f60e31b8152336004820152602481018490527f00000000000000000000000000000000000000000000000000000000000000006001600160a01b0316925063205c287891506044015f604051808303815f87803b158015611001575f80fd5b505af1158015611013573d5f803e3d5ffd5b50506040513392508791508b907ffd26bdfab7051e704daf6de4b923d491d29d356b8d9135f96640adfc1c58cec4905f90a45050505050505050610bc360018055565b5f80516020612e4083398151915261106d816123ba565b5f8281526003602052604090208054640100000000900460ff166110a35760405162461bcd60e51b815260040161077190612d57565b8054600160281b900460ff166110f35760405162461bcd60e51b815260206004820152601560248201527413dc99195c909bdbdace881b9bdd081a185b1d1959605a1b6044820152606401610771565b805465ff00000000001916815560405183907f494aab8fe38b99450ffd0b9998bfa08fc671c1788ebcef6a00894cdc134409e5905f90a2505050565b5f611138612453565b5f8681526003602052604090208054640100000000900460ff1661116e5760405162461bcd60e51b815260040161077190612d57565b8054600160281b900460ff16156111c75760405162461bcd60e51b815260206004820152601860248201527f4f72646572426f6f6b3a206d61726b65742068616c74656400000000000000006044820152606401610771565b8054600160901b900464ffffffffff1642106112255760405162461bcd60e51b815260206004820152601960248201527f4f72646572426f6f6b3a206d61726b65742065787069726564000000000000006044820152606401610771565b60018410158015611237575060638411155b6112835760405162461bcd60e51b815260206004820152601c60248201527f4f72646572426f6f6b3a207469636b206f7574206f662072616e6765000000006044820152606401610771565b5f83116112c95760405162461bcd60e51b81526020600482015260146024820152734f72646572426f6f6b3a207a65726f206c6f747360601b6044820152606401610771565b8054600160501b900463ffffffff168310156113275760405162461bcd60e51b815260206004820152601960248201527f4f72646572426f6f6b3a2062656c6f77206d696e206c6f7473000000000000006044820152606401610771565b6001600160401b0383111561137e5760405162461bcd60e51b815260206004820152601860248201527f4f72646572426f6f6b3a206c6f7473206f766572666c6f7700000000000000006044820152606401610771565b63ffffffff8711156113d25760405162461bcd60e51b815260206004820152601c60248201527f4f72646572426f6f6b3a206d61726b65744964206f766572666c6f77000000006044820152606401610771565b5f808760018111156113e6576113e6612b30565b0361141a576064856113ff662386f26fc1000087612cca565b6114099190612cca565b6114139190612ce1565b905061144e565b60646114268682612d00565b611437662386f26fc1000087612cca565b6114419190612cca565b61144b9190612ce1565b90505b6040516399a5d74760e01b8152600481018290525f907f00000000000000000000000000000000000000000000000000000000000000006001600160a01b0316906399a5d74790602401602060405180830381865afa1580156114b3573d5f803e3d5ffd5b505050506040513d601f19601f820116820180604052508101906114d79190612d13565b6114e19083612d2a565b83545f8b8152600760209081526040808320600160301b90940463ffffffff1680845293909152902054919250906101901161152557611522816001612d2a565b90505b5f8a81526007602090815260408083208484529091529020546101901161158e5760405162461bcd60e51b815260206004820152601960248201527f4f72646572426f6f6b3a206261746368206f766572666c6f77000000000000006044820152606401610771565b600280545f916001600160401b0390911690826115aa83612d8e565b91906101000a8154816001600160401b0302191690836001600160401b031602179055509050806001600160401b03169550604051806101200160405280336001600160a01b031681526020018b600181111561160957611609612b30565b81526020018a600181111561162057611620612b30565b81526020018960ff168152602001886001600160401b03168152602001826001600160401b031681526020018c63ffffffff1681526020018363ffffffff1681526020014264ffffffffff1681525060045f8881526020019081526020015f205f820151815f015f6101000a8154816001600160a01b0302191690836001600160a01b031602179055506020820151815f0160146101000a81548160ff021916908360018111156116d3576116d3612b30565b021790555060408201518154829060ff60a81b1916600160a81b8360018111156116ff576116ff612b30565b021790555060608201518154608084015168ffffffffffffffffff60b01b19909116600160b01b60ff9093169290920267ffffffffffffffff60b81b191691909117600160b81b6001600160401b039283160217825560a08301516001909201805460c085015160e086015161010090960151949093166bffffffffffffffffffffffff1990911617600160401b63ffffffff938416021768ffffffffffffffffff60601b1916600160601b929094169190910264ffffffffff60801b191692909217600160801b64ffffffffff90921691909102179055505f8960018111156117eb576117eb612b30565b0361180d575f8a815260056020526040902061180890888861247d565b611825565b5f8a815260066020526040902061182590888861247d565b5f8a8152600760209081526040808320848452825280832080546001810182559084529190922001869055516317a790f160e11b8152336004820152602481018390527f00000000000000000000000000000000000000000000000000000000000000006001600160a01b031690632f4f21e2906044015f604051808303815f87803b1580156118b3575f80fd5b505af11580156118c5573d5f803e3d5ffd5b505060405163282d3fdf60e01b8152336004820152602481018590527f00000000000000000000000000000000000000000000000000000000000000006001600160a01b0316925063282d3fdf91506044015f604051808303815f87803b15801561192e575f80fd5b505af1158015611940573d5f803e3d5ffd5b50505050336001600160a01b03168a867f0e2f0330146cb09b59c1b2264d2f116f040cf9498b429633b1fa3fa93151f8098c8b8b876040516119859493929190612db3565b60405180910390a45050505061199a60018055565b95945050505050565b5f80516020612e408339815191526119ba816123ba565b5f8281526003602052604090208054600160301b900463ffffffff169060066119e283612ddc565b91906101000a81548163ffffffff021916908363ffffffff160217905550505050565b5f5f80516020612e40833981519152611a1d816123ba565b63ffffffff851115611a715760405162461bcd60e51b815260206004820152601b60248201527f4f72646572426f6f6b3a206d696e4c6f7473206f766572666c6f7700000000006044820152606401610771565b63ffffffff841115611acf5760405162461bcd60e51b815260206004820152602160248201527f4f72646572426f6f6b3a206261746368496e74657276616c206f766572666c6f6044820152607760f81b6064820152608401610771565b64ffffffffff831115611b245760405162461bcd60e51b815260206004820152601e60248201527f4f72646572426f6f6b3a2065787069727954696d65206f766572666c6f7700006044820152606401610771565b600280545f91600160401b90910463ffffffff16906008611b4483612ddc565b91906101000a81548163ffffffff021916908363ffffffff16021790555090508063ffffffff1692506040518060e001604052808263ffffffff1681526020016001151581526020015f15158152602001600163ffffffff1681526020018763ffffffff1681526020018663ffffffff1681526020018564ffffffffff1681525060035f8581526020019081526020015f205f820151815f015f6101000a81548163ffffffff021916908363ffffffff1602179055506020820151815f0160046101000a81548160ff0219169083151502179055506040820151815f0160056101000a81548160ff0219169083151502179055506060820151815f0160066101000a81548163ffffffff021916908363ffffffff1602179055506080820151815f01600a6101000a81548163ffffffff021916908363ffffffff16021790555060a0820151815f01600e6101000a81548163ffffffff021916908363ffffffff16021790555060c0820151815f0160126101000a81548164ffffffffff021916908364ffffffffff160217905550905050827ff5fb876e44e07561d8c7f081e2b36562510347665493429ffb93b5b818c48fa287604051611d0791815260200190565b60405180910390a250509392505050565b5f8281526005602052604081206001015460018311611d385790506106d4565b5f611d5a611d47600186612d00565b5f87815260056020526040902090612601565b905080821015611d6a575f61199a565b61199a8183612d00565b5f918252602082815260408084206001600160a01b0393909316845291905290205460ff1690565b5f828152600760209081526040808320848452825291829020805483518184028101840190945280845260609392830182828015611df757602002820191905f5260205f20905b815481526020019060010190808311611de3575b5050505050905092915050565b5f80516020612e40833981519152611e1b816123ba565b5f8281526003602052604090208054640100000000900460ff16611e515760405162461bcd60e51b815260040161077190612d57565b805464ff000000001916815560405183907f708180d74976b418919669b1438b715c43ac3d335603b0e3f6916ebeface8e84905f90a2505050565b5f828152600560205260408120611ea39083612670565b9392505050565b5f828152600660205260408120611ea39083612601565b5f82815260208190526040902060010154611edb816123ba565b6107ec8383612598565b5f818152600560209081526040808320600690925282206106d491906126c3565b611f0e612453565b5f5b818110156122ad575f60045f858585818110611f2e57611f2e612df4565b9050602002013581526020019081526020015f209050805f0160179054906101000a90046001600160401b03166001600160401b03165f03611f7057506122a5565b6001810154600160401b900463ffffffff165f9081526003602052604090208054600160901b900464ffffffffff164211611fac5750506122a5565b815460018301546001600160a01b03821691600160b81b81046001600160401b031691600160b01b820460ff90811692600160401b90920463ffffffff1691600160a01b9004165f8082600181111561200757612007612b30565b0361203b57606484612020662386f26fc1000088612cca565b61202a9190612cca565b6120349190612ce1565b905061206f565b60646120478582612d00565b612058662386f26fc1000088612cca565b6120629190612cca565b61206c9190612ce1565b90505b6040516399a5d74760e01b8152600481018290525f907f00000000000000000000000000000000000000000000000000000000000000006001600160a01b0316906399a5d74790602401602060405180830381865afa1580156120d4573d5f803e3d5ffd5b505050506040513d601f19601f820116820180604052508101906120f89190612d13565b90505f6121058284612d2a565b8a5467ffffffffffffffff60b81b19168b5590505f84600181111561212c5761212c612b30565b036121435761213e86610a4489612d3d565b612150565b61215086610a6a89612d3d565b604051637eee288d60e01b81526001600160a01b038981166004830152602482018390527f00000000000000000000000000000000000000000000000000000000000000001690637eee288d906044015f604051808303815f87803b1580156121b7575f80fd5b505af11580156121c9573d5f803e3d5ffd5b505060405163040b850f60e31b81526001600160a01b038b81166004830152602482018590527f000000000000000000000000000000000000000000000000000000000000000016925063205c287891506044015f604051808303815f87803b158015612234575f80fd5b505af1158015612246573d5f803e3d5ffd5b50505050876001600160a01b0316858e8e8e81811061226757612267612df4565b905060200201357ffd26bdfab7051e704daf6de4b923d491d29d356b8d9135f96640adfc1c58cec460405160405180910390a4505050505050505050505b600101611f10565b506122b760018055565b5050565b5f80516020612e408339815191526122d2816123ba565b5f8281526003602052604090208054640100000000900460ff166123085760405162461bcd60e51b815260040161077190612d57565b8054600160281b900460ff16156123615760405162461bcd60e51b815260206004820152601960248201527f4f72646572426f6f6b3a20616c72656164792068616c746564000000000000006044820152606401610771565b805465ff00000000001916600160281b17815560405183907fd4d124e56d9cf4a02d7db6eacb747b5434cbdf2149cdc9a994ca655adccfb728905f90a2505050565b5f828152600660205260408120611ea39083612670565b610bc3813361287f565b5f6123cf8383611d74565b61244c575f838152602081815260408083206001600160a01b03861684529091529020805460ff191660011790556124043390565b6001600160a01b0316826001600160a01b0316847f2f8788117e7eff1d82e926ec794901d17c78024a50270940304540a733656f0d60405160405180910390a45060016106d4565b505f6106d4565b60026001540361247657604051633ee5aeb560e01b815260040160405180910390fd5b6002600155565b6001821015801561248f575060638211155b6124ab5760405162461bcd60e51b815260040161077190612e08565b5f6124b5836128b8565b90505b600181106107ec575f82126124f55781848261010081106124db576124db612df4565b015f8282546124ea9190612d2a565b909155506125889050565b5f6124ff83612d3d565b9050808583610100811061251557612515612df4565b0154101561255e5760405162461bcd60e51b81526020600482015260166024820152755365676d656e74547265653a20756e646572666c6f7760501b6044820152606401610771565b808583610100811061257257612572612df4565b015f8282546125819190612d00565b9091555050505b600181146107ec5760011c6124b8565b5f6125a38383611d74565b1561244c575f838152602081815260408083206001600160a01b0386168085529252808320805460ff1916905551339286917ff6391f5c32d9c69d2a47ea670b442974b53935d1edc7fd64eb21e047a839171b9190a45060016106d4565b5f60018210158015612614575060638211155b6126305760405162461bcd60e51b815260040161077190612e08565b60805f600161263f8584612d2a565b6126499190612d00565b905061199a8583836001608081612661826002612cca565b61266b9190612d00565b6128d0565b5f60018210158015612683575060638211155b61269f5760405162461bcd60e51b815260040161077190612e08565b826126a9836128b8565b61010081106126ba576126ba612df4565b01549392505050565b60018201545f908082036126da575f9150506106d4565b60018301545f8190036126f1575f925050506106d4565b5f9250600160635b80821161279b575f600261270d8385612d2a565b6127179190612ce1565b90505f60018211612728575f61273c565b61273c89612737600185612d00565b612601565b90505f8187101561274d575f612757565b6127578288612d00565b90505f6127648a85612601565b90508082106127845783985083600161277d9190612d2a565b9550612792565b61278f600185612d00565b94505b505050506126f9565b6063851015612875575f6127b0866001612d2a565b90505f8615612808575f600188116127c8575f6127d7565b6127d78a61273760018b612d00565b90505f6127e48289612d00565b90505f6127f18b8b612601565b90508082106128005780612802565b815b93505050505b5f60018311612817575f612826565b6128268a612737600186612d00565b90505f81881015612837575f612841565b6128418289612d00565b90505f61284e8b86612601565b90505f81831061285e5781612860565b825b90508481111561286e57859a505b5050505050505b5050505092915050565b6128898282611d74565b6122b75760405163e2517d3f60e01b81526001600160a01b038216600482015260248101839052604401610771565b5f60016128c6836080612d2a565b6106d49190612d00565b5f818611806128de57508285105b156128ea57505f61298f565b8286111580156128fa5750848211155b1561291b578684610100811061291257612912612df4565b0154905061298f565b5f60026129288486612d2a565b6129329190612ce1565b90505f61294d8989896129468a6002612cca565b89876128d0565b90505f61297d8a8a8a6129618b6002612cca565b61296c906001612d2a565b612977886001612d2a565b8a6128d0565b90506129898183612d2a565b93505050505b9695505050505050565b5f602082840312156129a9575f80fd5b81356001600160e01b031981168114611ea3575f80fd5b5f602082840312156129d0575f80fd5b5035919050565b5f80604083850312156129e8575f80fd5b50508035926020909101359150565b5f8060408385031215612a08575f80fd5b8235915060208301356001600160a01b0381168114612a25575f80fd5b809150509250929050565b5f805f60608486031215612a42575f80fd5b505081359360208301359350604090920135919050565b60028110610bc3575f80fd5b5f805f8060808587031215612a78575f80fd5b843593506020850135612a8a81612a59565b93969395505050506040820135916060013590565b5f805f805f60a08688031215612ab3575f80fd5b853594506020860135612ac581612a59565b93506040860135612ad581612a59565b94979396509394606081013594506080013592915050565b602080825282518282018190525f9190848201906040850190845b81811015612b2457835183529284019291840191600101612b08565b50909695505050505050565b634e487b7160e01b5f52602160045260245ffd5b60028110610bc357634e487b7160e01b5f52602160045260245ffd5b6001600160a01b038a1681526101208101612b7a8a612b44565b896020830152612b8989612b44565b604082019890985260ff9690961660608701526001600160401b0394851660808701529290931660a085015263ffffffff90811660c085015290911660e083015264ffffffffff166101009091015292915050565b5f8060208385031215612bef575f80fd5b82356001600160401b0380821115612c05575f80fd5b818501915085601f830112612c18575f80fd5b813581811115612c26575f80fd5b8660208260051b8501011115612c3a575f80fd5b60209290920196919550909350505050565b634e487b7160e01b5f52601160045260245ffd5b6001600160401b03828116828216039080821115612c8057612c80612c4c565b5092915050565b60208082526023908201527f4f72646572426f6f6b3a20616c72656164792063616e63656c6c65642f66696c6040820152621b195960ea1b606082015260800190565b80820281158282048414176106d4576106d4612c4c565b5f82612cfb57634e487b7160e01b5f52601260045260245ffd5b500490565b818103818111156106d4576106d4612c4c565b5f60208284031215612d23575f80fd5b5051919050565b808201808211156106d4576106d4612c4c565b5f600160ff1b8201612d5157612d51612c4c565b505f0390565b6020808252601c908201527f4f72646572426f6f6b3a206d61726b6574206e6f742061637469766500000000604082015260600190565b5f6001600160401b03808316818103612da957612da9612c4c565b6001019392505050565b60808101612dc086612b44565b9481526020810193909352604083019190915260609091015290565b5f63ffffffff808316818103612da957612da9612c4c565b634e487b7160e01b5f52603260045260245ffd5b6020808252601e908201527f5365676d656e74547265653a207469636b206f7574206f662072616e6765000060408201526060019056fe97667070c54ef182b0f5858b034beac1b6f3089aa2d3188bb1e8929f4fa9b929a264697066735822122033b9c437a759a69bc987f2f73489365ec914717f6ca4fbee4a9c4614452e8ca164736f6c63430008190033","linkReferences":{}},"methodIdentifiers":{"DEFAULT_ADMIN_ROLE()":"a217fddf","MAX_ORDERS_PER_BATCH()":"146aea36","MAX_TICK()":"6882a888","MIN_TICK()":"a1634b14","OPERATOR_ROLE()":"f5b541a6","advanceBatch(uint256)":"672bc121","askVolumeAt(uint256,uint256)":"fedfe902","bidVolumeAt(uint256,uint256)":"caa4d3db","cancelExpiredOrder(uint256)":"3227851b","cancelExpiredOrders(uint256[])":"ef0595f5","cancelOrder(uint256)":"514fcac7","cumulativeAskVolume(uint256,uint256)":"ce5c5c93","cumulativeBidVolume(uint256,uint256)":"89d5a887","deactivateMarket(uint256)":"c8f5e28b","feeModel()":"97ee1144","findClearingTick(uint256)":"df840f2d","getBatchOrderIds(uint256,uint256)":"9b2990d8","getRoleAdmin(bytes32)":"248a9ca3","grantRole(bytes32,address)":"2f2ff15d","haltMarket(uint256)":"f45d4dd0","hasRole(bytes32,address)":"91d14854","markets(uint256)":"b1283e77","nextMarketId()":"406ef2ef","nextOrderId()":"2a58b330","orders(uint256)":"a85c38ef","placeOrder(uint256,uint8,uint8,uint256,uint256)":"55d6a0c0","pushBatchOrderId(uint256,uint256,uint256)":"4da5a1b8","reduceOrderLots(uint256,uint256)":"156a36a8","registerMarket(uint256,uint256,uint256)":"677ea780","renounceRole(bytes32,address)":"36568abe","resumeMarket(uint256)":"52491ee6","revokeRole(bytes32,address)":"d547741f","supportsInterface(bytes4)":"01ffc9a7","totalAskVolume(uint256)":"48c1586f","totalBidVolume(uint256)":"0a64e0a0","updateTreeVolume(uint256,uint8,uint256,int256)":"4e9e373a","vault()":"fbfa77cf"},"id":65}